{
    "contractName": "GoonzBases",
    "abi": [
        {
            "inputs": [],
            "stateMutability": "nonpayable",
            "type": "constructor"
        },
        {
            "anonymous": false,
            "inputs": [
                {
                    "indexed": true,
                    "internalType": "address",
                    "name": "owner",
                    "type": "address"
                },
                {
                    "indexed": true,
                    "internalType": "address",
                    "name": "approved",
                    "type": "address"
                },
                {
                    "indexed": true,
                    "internalType": "uint256",
                    "name": "tokenId",
                    "type": "uint256"
                }
            ],
            "name": "Approval",
            "type": "event"
        },
        {
            "anonymous": false,
            "inputs": [
                {
                    "indexed": true,
                    "internalType": "address",
                    "name": "owner",
                    "type": "address"
                },
                {
                    "indexed": true,
                    "internalType": "address",
                    "name": "operator",
                    "type": "address"
                },
                {
                    "indexed": false,
                    "internalType": "bool",
                    "name": "approved",
                    "type": "bool"
                }
            ],
            "name": "ApprovalForAll",
            "type": "event"
        },
        {
            "anonymous": false,
            "inputs": [
                {
                    "indexed": true,
                    "internalType": "address",
                    "name": "user",
                    "type": "address"
                },
                {
                    "indexed": true,
                    "internalType": "uint256",
                    "name": "tokenId",
                    "type": "uint256"
                }
            ],
            "name": "GiveawayMinted",
            "type": "event"
        },
        {
            "anonymous": false,
            "inputs": [
                {
                    "indexed": true,
                    "internalType": "address",
                    "name": "previousOwner",
                    "type": "address"
                },
                {
                    "indexed": true,
                    "internalType": "address",
                    "name": "newOwner",
                    "type": "address"
                }
            ],
            "name": "OwnershipTransferred",
            "type": "event"
        },
        {
            "anonymous": false,
            "inputs": [
                {
                    "indexed": true,
                    "internalType": "address",
                    "name": "user",
                    "type": "address"
                },
                {
                    "indexed": true,
                    "internalType": "uint256",
                    "name": "tokenId",
                    "type": "uint256"
                }
            ],
            "name": "PolygoonMinted",
            "type": "event"
        },
        {
            "anonymous": false,
            "inputs": [
                {
                    "indexed": true,
                    "internalType": "address",
                    "name": "from",
                    "type": "address"
                },
                {
                    "indexed": true,
                    "internalType": "address",
                    "name": "to",
                    "type": "address"
                },
                {
                    "indexed": true,
                    "internalType": "uint256",
                    "name": "tokenId",
                    "type": "uint256"
                }
            ],
            "name": "Transfer",
            "type": "event"
        },
        {
            "inputs": [
                {
                    "internalType": "address",
                    "name": "to",
                    "type": "address"
                },
                {
                    "internalType": "uint256",
                    "name": "tokenId",
                    "type": "uint256"
                }
            ],
            "name": "approve",
            "outputs": [],
            "stateMutability": "nonpayable",
            "type": "function"
        },
        {
            "inputs": [],
            "name": "artistWallet",
            "outputs": [
                {
                    "internalType": "address",
                    "name": "",
                    "type": "address"
                }
            ],
            "stateMutability": "view",
            "type": "function"
        },
        {
            "inputs": [
                {
                    "internalType": "address",
                    "name": "owner",
                    "type": "address"
                }
            ],
            "name": "balanceOf",
            "outputs": [
                {
                    "internalType": "uint256",
                    "name": "",
                    "type": "uint256"
                }
            ],
            "stateMutability": "view",
            "type": "function"
        },
        {
            "inputs": [],
            "name": "baseURI",
            "outputs": [
                {
                    "internalType": "string",
                    "name": "",
                    "type": "string"
                }
            ],
            "stateMutability": "view",
            "type": "function"
        },
        {
            "inputs": [],
            "name": "checkBalance",
            "outputs": [
                {
                    "internalType": "uint256",
                    "name": "balance",
                    "type": "uint256"
                }
            ],
            "stateMutability": "view",
            "type": "function"
        },
        {
            "inputs": [],
            "name": "claimGiveaway",
            "outputs": [],
            "stateMutability": "payable",
            "type": "function"
        },
        {
            "inputs": [],
            "name": "cost",
            "outputs": [
                {
                    "internalType": "uint256",
                    "name": "",
                    "type": "uint256"
                }
            ],
            "stateMutability": "view",
            "type": "function"
        },
        {
            "inputs": [],
            "name": "devWallet",
            "outputs": [
                {
                    "internalType": "address",
                    "name": "",
                    "type": "address"
                }
            ],
            "stateMutability": "view",
            "type": "function"
        },
        {
            "inputs": [
                {
                    "internalType": "uint256",
                    "name": "tokenId",
                    "type": "uint256"
                }
            ],
            "name": "getApproved",
            "outputs": [
                {
                    "internalType": "address",
                    "name": "",
                    "type": "address"
                }
            ],
            "stateMutability": "view",
            "type": "function"
        },
        {
            "inputs": [
                {
                    "internalType": "uint256",
                    "name": "_tokenID",
                    "type": "uint256"
                }
            ],
            "name": "getItems",
            "outputs": [
                {
                    "internalType": "uint256[]",
                    "name": "goonItems",
                    "type": "uint256[]"
                }
            ],
            "stateMutability": "view",
            "type": "function"
        },
        {
            "inputs": [
                {
                    "internalType": "uint256",
                    "name": "_tokenID",
                    "type": "uint256"
                }
            ],
            "name": "getPower",
            "outputs": [
                {
                    "internalType": "uint256",
                    "name": "",
                    "type": "uint256"
                }
            ],
            "stateMutability": "view",
            "type": "function"
        },
        {
            "inputs": [],
            "name": "getTotalSupply",
            "outputs": [
                {
                    "internalType": "uint256",
                    "name": "total_supply",
                    "type": "uint256"
                }
            ],
            "stateMutability": "view",
            "type": "function"
        },
        {
            "inputs": [
                {
                    "internalType": "address",
                    "name": "",
                    "type": "address"
                }
            ],
            "name": "giveawayTracker",
            "outputs": [
                {
                    "internalType": "uint256",
                    "name": "amount",
                    "type": "uint256"
                },
                {
                    "internalType": "uint256",
                    "name": "numberClaimed",
                    "type": "uint256"
                }
            ],
            "stateMutability": "view",
            "type": "function"
        },
        {
            "inputs": [],
            "name": "goonzItemsAddress",
            "outputs": [
                {
                    "internalType": "address",
                    "name": "",
                    "type": "address"
                }
            ],
            "stateMutability": "view",
            "type": "function"
        },
        {
            "inputs": [],
            "name": "goonzItemsContract",
            "outputs": [
                {
                    "internalType": "contract IGoonzItems",
                    "name": "",
                    "type": "address"
                }
            ],
            "stateMutability": "view",
            "type": "function"
        },
        {
            "inputs": [],
            "name": "initialize",
            "outputs": [],
            "stateMutability": "nonpayable",
            "type": "function"
        },
        {
            "inputs": [
                {
                    "internalType": "address",
                    "name": "owner",
                    "type": "address"
                },
                {
                    "internalType": "address",
                    "name": "operator",
                    "type": "address"
                }
            ],
            "name": "isApprovedForAll",
            "outputs": [
                {
                    "internalType": "bool",
                    "name": "",
                    "type": "bool"
                }
            ],
            "stateMutability": "view",
            "type": "function"
        },
        {
            "inputs": [
                {
                    "internalType": "address",
                    "name": "_user",
                    "type": "address"
                }
            ],
            "name": "isGiveawayWinner",
            "outputs": [
                {
                    "internalType": "bool",
                    "name": "winner",
                    "type": "bool"
                }
            ],
            "stateMutability": "view",
            "type": "function"
        },
        {
            "inputs": [
                {
                    "internalType": "address[]",
                    "name": "addresses",
                    "type": "address[]"
                },
                {
                    "internalType": "uint256[]",
                    "name": "amounts",
                    "type": "uint256[]"
                }
            ],
            "name": "listGiveawayWinners",
            "outputs": [],
            "stateMutability": "nonpayable",
            "type": "function"
        },
        {
            "inputs": [],
            "name": "marketingWallet",
            "outputs": [
                {
                    "internalType": "address",
                    "name": "",
                    "type": "address"
                }
            ],
            "stateMutability": "view",
            "type": "function"
        },
        {
            "inputs": [],
            "name": "maxMintAmount",
            "outputs": [
                {
                    "internalType": "uint256",
                    "name": "",
                    "type": "uint256"
                }
            ],
            "stateMutability": "view",
            "type": "function"
        },
        {
            "inputs": [],
            "name": "maxRegularMint",
            "outputs": [
                {
                    "internalType": "uint256",
                    "name": "",
                    "type": "uint256"
                }
            ],
            "stateMutability": "view",
            "type": "function"
        },
        {
            "inputs": [],
            "name": "maxSupply",
            "outputs": [
                {
                    "internalType": "uint256",
                    "name": "",
                    "type": "uint256"
                }
            ],
            "stateMutability": "view",
            "type": "function"
        },
        {
            "inputs": [],
            "name": "name",
            "outputs": [
                {
                    "internalType": "string",
                    "name": "",
                    "type": "string"
                }
            ],
            "stateMutability": "view",
            "type": "function"
        },
        {
            "inputs": [
                {
                    "internalType": "address",
                    "name": "",
                    "type": "address"
                },
                {
                    "internalType": "address",
                    "name": "",
                    "type": "address"
                },
                {
                    "internalType": "uint256[]",
                    "name": "",
                    "type": "uint256[]"
                },
                {
                    "internalType": "uint256[]",
                    "name": "",
                    "type": "uint256[]"
                },
                {
                    "internalType": "bytes",
                    "name": "",
                    "type": "bytes"
                }
            ],
            "name": "onERC1155BatchReceived",
            "outputs": [
                {
                    "internalType": "bytes4",
                    "name": "",
                    "type": "bytes4"
                }
            ],
            "stateMutability": "nonpayable",
            "type": "function"
        },
        {
            "inputs": [
                {
                    "internalType": "address",
                    "name": "",
                    "type": "address"
                },
                {
                    "internalType": "address",
                    "name": "",
                    "type": "address"
                },
                {
                    "internalType": "uint256",
                    "name": "",
                    "type": "uint256"
                },
                {
                    "internalType": "uint256",
                    "name": "",
                    "type": "uint256"
                },
                {
                    "internalType": "bytes",
                    "name": "",
                    "type": "bytes"
                }
            ],
            "name": "onERC1155Received",
            "outputs": [
                {
                    "internalType": "bytes4",
                    "name": "",
                    "type": "bytes4"
                }
            ],
            "stateMutability": "nonpayable",
            "type": "function"
        },
        {
            "inputs": [],
            "name": "owner",
            "outputs": [
                {
                    "internalType": "address",
                    "name": "",
                    "type": "address"
                }
            ],
            "stateMutability": "view",
            "type": "function"
        },
        {
            "inputs": [
                {
                    "internalType": "uint256",
                    "name": "tokenId",
                    "type": "uint256"
                }
            ],
            "name": "ownerOf",
            "outputs": [
                {
                    "internalType": "address",
                    "name": "",
                    "type": "address"
                }
            ],
            "stateMutability": "view",
            "type": "function"
        },
        {
            "inputs": [
                {
                    "internalType": "bool",
                    "name": "_state",
                    "type": "bool"
                }
            ],
            "name": "pause",
            "outputs": [],
            "stateMutability": "nonpayable",
            "type": "function"
        },
        {
            "inputs": [],
            "name": "paused",
            "outputs": [
                {
                    "internalType": "bool",
                    "name": "",
                    "type": "bool"
                }
            ],
            "stateMutability": "view",
            "type": "function"
        },
        {
            "inputs": [
                {
                    "internalType": "uint256",
                    "name": "_tokenID",
                    "type": "uint256"
                },
                {
                    "internalType": "uint256",
                    "name": "_layer",
                    "type": "uint256"
                }
            ],
            "name": "removeItem",
            "outputs": [],
            "stateMutability": "nonpayable",
            "type": "function"
        },
        {
            "inputs": [],
            "name": "renounceOwnership",
            "outputs": [],
            "stateMutability": "nonpayable",
            "type": "function"
        },
        {
            "inputs": [
                {
                    "internalType": "uint256",
                    "name": "_mintAmount",
                    "type": "uint256"
                }
            ],
            "name": "safeMint",
            "outputs": [],
            "stateMutability": "payable",
            "type": "function"
        },
        {
            "inputs": [
                {
                    "internalType": "address",
                    "name": "from",
                    "type": "address"
                },
                {
                    "internalType": "address",
                    "name": "to",
                    "type": "address"
                },
                {
                    "internalType": "uint256",
                    "name": "tokenId",
                    "type": "uint256"
                }
            ],
            "name": "safeTransferFrom",
            "outputs": [],
            "stateMutability": "nonpayable",
            "type": "function"
        },
        {
            "inputs": [
                {
                    "internalType": "address",
                    "name": "from",
                    "type": "address"
                },
                {
                    "internalType": "address",
                    "name": "to",
                    "type": "address"
                },
                {
                    "internalType": "uint256",
                    "name": "tokenId",
                    "type": "uint256"
                },
                {
                    "internalType": "bytes",
                    "name": "_data",
                    "type": "bytes"
                }
            ],
            "name": "safeTransferFrom",
            "outputs": [],
            "stateMutability": "nonpayable",
            "type": "function"
        },
        {
            "inputs": [
                {
                    "internalType": "address",
                    "name": "operator",
                    "type": "address"
                },
                {
                    "internalType": "bool",
                    "name": "approved",
                    "type": "bool"
                }
            ],
            "name": "setApprovalForAll",
            "outputs": [],
            "stateMutability": "nonpayable",
            "type": "function"
        },
        {
            "inputs": [
                {
                    "internalType": "address",
                    "name": "_walletAddress",
                    "type": "address"
                }
            ],
            "name": "setArtistWallet",
            "outputs": [],
            "stateMutability": "nonpayable",
            "type": "function"
        },
        {
            "inputs": [
                {
                    "internalType": "string",
                    "name": "_newBaseURI",
                    "type": "string"
                }
            ],
            "name": "setBaseURI",
            "outputs": [],
            "stateMutability": "nonpayable",
            "type": "function"
        },
        {
            "inputs": [
                {
                    "internalType": "uint256",
                    "name": "_newCost",
                    "type": "uint256"
                }
            ],
            "name": "setCost",
            "outputs": [],
            "stateMutability": "nonpayable",
            "type": "function"
        },
        {
            "inputs": [
                {
                    "internalType": "address",
                    "name": "_walletAddress",
                    "type": "address"
                }
            ],
            "name": "setDesignerWallet",
            "outputs": [],
            "stateMutability": "nonpayable",
            "type": "function"
        },
        {
            "inputs": [
                {
                    "internalType": "address",
                    "name": "_walletAddress",
                    "type": "address"
                }
            ],
            "name": "setDevWallet",
            "outputs": [],
            "stateMutability": "nonpayable",
            "type": "function"
        },
        {
            "inputs": [
                {
                    "internalType": "uint256",
                    "name": "_tokenID",
                    "type": "uint256"
                },
                {
                    "internalType": "uint256",
                    "name": "_layer",
                    "type": "uint256"
                },
                {
                    "internalType": "uint256",
                    "name": "_1155_tokenID",
                    "type": "uint256"
                }
            ],
            "name": "setItem",
            "outputs": [],
            "stateMutability": "nonpayable",
            "type": "function"
        },
        {
            "inputs": [
                {
                    "internalType": "address",
                    "name": "_walletAddress",
                    "type": "address"
                }
            ],
            "name": "setMarketingWallet",
            "outputs": [],
            "stateMutability": "nonpayable",
            "type": "function"
        },
        {
            "inputs": [
                {
                    "internalType": "uint256",
                    "name": "_newMaxSupply",
                    "type": "uint256"
                }
            ],
            "name": "setMaxSupply",
            "outputs": [],
            "stateMutability": "nonpayable",
            "type": "function"
        },
        {
            "inputs": [
                {
                    "internalType": "uint256",
                    "name": "_tokenID",
                    "type": "uint256"
                },
                {
                    "internalType": "uint256",
                    "name": "_power",
                    "type": "uint256"
                }
            ],
            "name": "setPower",
            "outputs": [],
            "stateMutability": "nonpayable",
            "type": "function"
        },
        {
            "inputs": [
                {
                    "internalType": "uint256",
                    "name": "_newmaxMintAmount",
                    "type": "uint256"
                }
            ],
            "name": "setmaxMintAmount",
            "outputs": [],
            "stateMutability": "nonpayable",
            "type": "function"
        },
        {
            "inputs": [
                {
                    "internalType": "uint256",
                    "name": "_toTokenID",
                    "type": "uint256"
                },
                {
                    "internalType": "uint256",
                    "name": "_1155ID",
                    "type": "uint256"
                }
            ],
            "name": "stakeToGoon",
            "outputs": [],
            "stateMutability": "nonpayable",
            "type": "function"
        },
        {
            "inputs": [
                {
                    "internalType": "bytes4",
                    "name": "interfaceId",
                    "type": "bytes4"
                }
            ],
            "name": "supportsInterface",
            "outputs": [
                {
                    "internalType": "bool",
                    "name": "",
                    "type": "bool"
                }
            ],
            "stateMutability": "view",
            "type": "function"
        },
        {
            "inputs": [],
            "name": "symbol",
            "outputs": [
                {
                    "internalType": "string",
                    "name": "",
                    "type": "string"
                }
            ],
            "stateMutability": "view",
            "type": "function"
        },
        {
            "inputs": [],
            "name": "teamWallet",
            "outputs": [
                {
                    "internalType": "address",
                    "name": "",
                    "type": "address"
                }
            ],
            "stateMutability": "view",
            "type": "function"
        },
        {
            "inputs": [
                {
                    "internalType": "uint256",
                    "name": "tokenId",
                    "type": "uint256"
                }
            ],
            "name": "tokenURI",
            "outputs": [
                {
                    "internalType": "string",
                    "name": "",
                    "type": "string"
                }
            ],
            "stateMutability": "view",
            "type": "function"
        },
        {
            "inputs": [],
            "name": "totalSupply",
            "outputs": [
                {
                    "internalType": "uint256",
                    "name": "",
                    "type": "uint256"
                }
            ],
            "stateMutability": "view",
            "type": "function"
        },
        {
            "inputs": [
                {
                    "internalType": "address",
                    "name": "from",
                    "type": "address"
                },
                {
                    "internalType": "address",
                    "name": "to",
                    "type": "address"
                },
                {
                    "internalType": "uint256",
                    "name": "tokenId",
                    "type": "uint256"
                }
            ],
            "name": "transferFrom",
            "outputs": [],
            "stateMutability": "nonpayable",
            "type": "function"
        },
        {
            "inputs": [
                {
                    "internalType": "address",
                    "name": "newOwner",
                    "type": "address"
                }
            ],
            "name": "transferOwnership",
            "outputs": [],
            "stateMutability": "nonpayable",
            "type": "function"
        },
        {
            "inputs": [
                {
                    "internalType": "uint256",
                    "name": "_fromTokenID",
                    "type": "uint256"
                },
                {
                    "internalType": "uint256",
                    "name": "_1155ID",
                    "type": "uint256"
                }
            ],
            "name": "unstakeFromGoon",
            "outputs": [],
            "stateMutability": "nonpayable",
            "type": "function"
        },
        {
            "inputs": [
                {
                    "internalType": "address",
                    "name": "_newAddress",
                    "type": "address"
                }
            ],
            "name": "updateItemsAddress",
            "outputs": [],
            "stateMutability": "nonpayable",
            "type": "function"
        },
        {
            "inputs": [
                {
                    "internalType": "uint256",
                    "name": "_tokenID",
                    "type": "uint256"
                },
                {
                    "internalType": "uint256",
                    "name": "_power",
                    "type": "uint256"
                },
                {
                    "internalType": "uint256",
                    "name": "_direction",
                    "type": "uint256"
                }
            ],
            "name": "updatePower",
            "outputs": [],
            "stateMutability": "nonpayable",
            "type": "function"
        },
        {
            "inputs": [],
            "name": "withdraw",
            "outputs": [],
            "stateMutability": "payable",
            "type": "function"
        }
    ],
    "bytecode": "60806040523480156200001157600080fd5b50600054610100900460ff166200002f5760005460ff161562000039565b62000039620000de565b620000a15760405162461bcd60e51b815260206004820152602e60248201527f496e697469616c697a61626c653a20636f6e747261637420697320616c72656160448201526d191e481a5b9a5d1a585b1a5e995960921b606482015260840160405180910390fd5b600054610100900460ff16158015620000c4576000805461ffff19166101011790555b8015620000d7576000805461ff00191690555b5062000102565b6000620000f630620000fc60201b620026831760201c565b15905090565b3b151590565b613b0080620001126000396000f3fe6080604052600436106103815760003560e01c806365e0e443116101d1578063a22cb46511610102578063c87b56dd116100a0578063ee33646c1161006f578063ee33646c14610a5e578063f23a6e6114610a7e578063f2fde38b14610aaa578063fce57fd914610aca57600080fd5b8063c87b56dd146109be578063d5abeb01146109de578063e985e9c5146109f5578063eaf63b7e14610a3e57600080fd5b8063bab4dde0116100dc578063bab4dde01461092e578063bc197c811461094e578063c4e41b2214610993578063c71daccb146109a957600080fd5b8063a22cb465146108cd578063a3342fba146108ed578063b88d4fde1461090e57600080fd5b80637f00c7a61161016f578063870fc34711610149578063870fc347146108595780638da5cb5b146108795780638ea5220f1461089757806395d89b41146108b857600080fd5b80637f00c7a6146108045780637f061efe146108245780638129fc1c1461084457600080fd5b806370a08231116101ab57806370a0823114610781578063715018a6146107a157806375f0a874146107b6578063796c5e94146107d757600080fd5b806365e0e4431461072b5780636c0360eb1461074c5780636f8b44b01461076157600080fd5b8063239c70ae116102b65780634af9bc1011610254578063599270441161022357806359927044146106af5780635c975abb146106d05780635d098b38146106eb5780636352211e1461070b57600080fd5b80634af9bc101461061d57806353c03d451461062557806355f804b31461066f5780635889f54d1461068f57600080fd5b80633ccfd60b116102905780633ccfd60b146105be5780634126d767146105c657806342842e0e146105dd57806344a0d68a146105fd57600080fd5b8063239c70ae1461057457806323b872dd1461058b57806331c864e8146105ab57600080fd5b80630fd72d161161032357806317eb5b4f116102fd57806317eb5b4f146104fc57806318160ddd1461051d5780631f53ac02146105345780632112a5081461055457600080fd5b80630fd72d16146104a557806312c8146b146104c557806313faede6146104e557600080fd5b806306fdde031161035f57806306fdde031461040b578063081812fc1461042d578063089c7d8b14610465578063095ea7b31461048557600080fd5b8063017fe8091461038657806301ffc9a7146103b957806302329a29146103e9575b600080fd5b34801561039257600080fd5b506103a66103a13660046135c1565b610aea565b6040519081526020015b60405180910390f35b3480156103c557600080fd5b506103d96103d436600461353e565b610b4b565b60405190151581526020016103b0565b3480156103f557600080fd5b50610409610404366004613523565b610b5c565b005b34801561041757600080fd5b50610420610b9a565b6040516103b09190613755565b34801561043957600080fd5b5061044d6104483660046135c1565b610c2c565b6040516001600160a01b0390911681526020016103b0565b34801561047157600080fd5b5061040961048036600461345c565b610cc1565b34801561049157600080fd5b506104096104a0366004613432565b610dc6565b3480156104b157600080fd5b506104096104c03660046135f3565b610ed7565b3480156104d157600080fd5b506104096104e03660046135f3565b610f14565b3480156104f157600080fd5b506103a661012e5481565b34801561050857600080fd5b506101395461044d906001600160a01b031681565b34801561052957600080fd5b506103a661013c5481565b34801561054057600080fd5b5061040961054f366004613207565b6111e6565b34801561056057600080fd5b506103d961056f366004613207565b61124f565b34801561058057600080fd5b506103a66101315481565b34801561059757600080fd5b506104096105a63660046132ff565b611283565b6104096105b93660046135c1565b6112b4565b6104096114e6565b3480156105d257600080fd5b506103a66101305481565b3480156105e957600080fd5b506104096105f83660046132ff565b61178e565b34801561060957600080fd5b506104096106183660046135c1565b6117a9565b6104096117d9565b34801561063157600080fd5b5061065a610640366004613207565b610133602052600090815260409020805460019091015482565b604080519283526020830191909152016103b0565b34801561067b57600080fd5b5061040961068a366004613578565b6119c6565b34801561069b57600080fd5b506104096106aa366004613207565b611a08565b3480156106bb57600080fd5b506101365461044d906001600160a01b031681565b3480156106dc57600080fd5b50610132546103d99060ff1681565b3480156106f757600080fd5b50610409610706366004613207565b611a90565b34801561071757600080fd5b5061044d6107263660046135c1565b611b18565b34801561073757600080fd5b506101385461044d906001600160a01b031681565b34801561075857600080fd5b50610420611b8f565b34801561076d57600080fd5b5061040961077c3660046135c1565b611c1e565b34801561078d57600080fd5b506103a661079c366004613207565b611c4e565b3480156107ad57600080fd5b50610409611cd5565b3480156107c257600080fd5b506101375461044d906001600160a01b031681565b3480156107e357600080fd5b506107f76107f23660046135c1565b611d0b565b6040516103b09190613711565b34801561081057600080fd5b5061040961081f3660046135c1565b611da5565b34801561083057600080fd5b5061040961083f366004613207565b611dd5565b34801561085057600080fd5b50610409611e2d565b34801561086557600080fd5b506104096108743660046135f3565b612052565b34801561088557600080fd5b5060fb546001600160a01b031661044d565b3480156108a357600080fd5b506101345461044d906001600160a01b031681565b3480156108c457600080fd5b50610420612099565b3480156108d957600080fd5b506104096108e8366004613408565b6120a8565b3480156108f957600080fd5b506101355461044d906001600160a01b031681565b34801561091a57600080fd5b5061040961092936600461333b565b6120b3565b34801561093a57600080fd5b50610409610949366004613615565b6120eb565b34801561095a57600080fd5b5061097a610969366004613255565b63bc197c8160e01b95945050505050565b6040516001600160e01b031990911681526020016103b0565b34801561099f57600080fd5b5061013c546103a6565b3480156109b557600080fd5b506103a661216e565b3480156109ca57600080fd5b506104206109d93660046135c1565b6121db565b3480156109ea57600080fd5b506103a661012f5481565b348015610a0157600080fd5b506103d9610a10366004613222565b6001600160a01b039182166000908152606a6020908152604080832093909416825291909152205460ff1690565b348015610a4a57600080fd5b50610409610a593660046135f3565b6122b6565b348015610a6a57600080fd5b50610409610a79366004613615565b6124e7565b348015610a8a57600080fd5b5061097a610a993660046133a3565b63f23a6e6160e01b95945050505050565b348015610ab657600080fd5b50610409610ac5366004613207565b61257f565b348015610ad657600080fd5b50610409610ae5366004613207565b612617565b6000610afe60fb546001600160a01b031690565b6001600160a01b0316336001600160a01b031614610b375760405162461bcd60e51b8152600401610b2e90613797565b60405180910390fd5b50600090815261013a602052604090205490565b6000610b5682612689565b92915050565b60fb546001600160a01b03163314610b865760405162461bcd60e51b8152600401610b2e9061380f565b610132805460ff1916911515919091179055565b606060658054610ba9906139c3565b80601f0160208091040260200160405190810160405280929190818152602001828054610bd5906139c3565b8015610c225780601f10610bf757610100808354040283529160200191610c22565b820191906000526020600020905b815481529060010190602001808311610c0557829003601f168201915b5050505050905090565b6000818152606760205260408120546001600160a01b0316610ca55760405162461bcd60e51b815260206004820152602c60248201527f4552433732313a20617070726f76656420717565727920666f72206e6f6e657860448201526b34b9ba32b73a103a37b5b2b760a11b6064820152608401610b2e565b506000908152606960205260409020546001600160a01b031690565b60fb546001600160a01b03163314610ceb5760405162461bcd60e51b8152600401610b2e9061380f565b8051825114610d325760405162461bcd60e51b81526020600482015260136024820152720d8cadccee8d0e640c8dedc4ee840dac2e8c6d606b1b6044820152606401610b2e565b60005b8251811015610dc157818181518110610d5057610d50613a59565b60200260200101516101336000858481518110610d6f57610d6f613a59565b60200260200101516001600160a01b03166001600160a01b031681526020019081526020016000206000016000828254610da99190613935565b90915550819050610db9816139fe565b915050610d35565b505050565b6000610dd182611b18565b9050806001600160a01b0316836001600160a01b03161415610e3f5760405162461bcd60e51b815260206004820152602160248201527f4552433732313a20617070726f76616c20746f2063757272656e74206f776e656044820152603960f91b6064820152608401610b2e565b336001600160a01b0382161480610e5b5750610e5b8133610a10565b610ecd5760405162461bcd60e51b815260206004820152603860248201527f4552433732313a20617070726f76652063616c6c6572206973206e6f74206f7760448201527f6e6572206e6f7220617070726f76656420666f7220616c6c00000000000000006064820152608401610b2e565b610dc183836126ae565b60fb546001600160a01b03163314610f015760405162461bcd60e51b8152600401610b2e90613797565b600091825261013a602052604090912055565b61013854604051635337b42160e11b8152600481018390526000916001600160a01b03169063a66f684290602401602060405180830381600087803b158015610f5c57600080fd5b505af1158015610f70573d6000803e3d6000fd5b505050506040513d601f19601f82011682018060405250810190610f9491906135da565b6101385460405163178d8cd960e01b8152600481018590529192506000916001600160a01b039091169063178d8cd990602401602060405180830381600087803b158015610fe157600080fd5b505af1158015610ff5573d6000803e3d6000fd5b505050506040513d601f19601f8201168201806040525081019061101991906135da565b600085815261013b60209081526040808320848452909152902054909150156110905760405162461bcd60e51b815260206004820152602360248201527f4974656d20616c72656164792061737369676e656420746f2074686973206c616044820152623cb2b960e91b6064820152608401610b2e565b61013854604051627eeac760e11b8152336004820152602481018590526000916001600160a01b03169062fdd58e9060440160206040518083038186803b1580156110da57600080fd5b505afa1580156110ee573d6000803e3d6000fd5b505050506040513d601f19601f8201168201806040525081019061111291906135da565b1161115f5760405162461bcd60e51b815260206004820152601b60248201527f596f7520646f6e27742068617665206f6e6520746f207374616b6500000000006044820152606401610b2e565b61116b848360006120eb565b6111768482856124e7565b61013854604051637921219560e11b81526001600160a01b039091169063f242432a906111ae903390309088906001906004016136d9565b600060405180830381600087803b1580156111c857600080fd5b505af11580156111dc573d6000803e3d6000fd5b5050505050505050565b610134546001600160a01b0316331461122c5760405162461bcd60e51b815260206004820152600860248201526727b7363c902232bb60c11b6044820152606401610b2e565b61013480546001600160a01b0319166001600160a01b0392909216919091179055565b6001600160a01b038116600090815261013360205260408120541561127657506001919050565b506000919050565b919050565b61128d338261271c565b6112a95760405162461bcd60e51b8152600401610b2e90613844565b610dc1838383612813565b6101325460ff16156113015760405162461bcd60e51b81526020600482015260166024820152751d1a194818dbdb9d1c9858dd081a5cc81c185d5cd95960521b6044820152606401610b2e565b61013c54816113525760405162461bcd60e51b815260206004820152601b60248201527f6e65656420746f206d696e74206174206c656173742031204e465400000000006044820152606401610b2e565b610131548211156113b15760405162461bcd60e51b8152602060048201526024808201527f6d6178206d696e7420616d6f756e74207065722073657373696f6e20657863656044820152631959195960e21b6064820152608401610b2e565b610130546113bf8383613935565b11156114065760405162461bcd60e51b81526020600482015260166024820152751b585e08139195081b1a5b5a5d08195e18d95959195960521b6044820152606401610b2e565b60fb546001600160a01b0316331461146b578161012e546114279190613961565b34101561146b5760405162461bcd60e51b8152602060048201526012602482015271696e73756666696369656e742066756e647360701b6044820152606401610b2e565b60015b828111610dc15761013c8054906000611486836139fe565b9091555061149f90503361149a8385613935565b6129b3565b6114a98183613935565b60405133907f2d9c34322838415ee05ef1fecfb0170a7da27dc20b373dd64af8bbb529eac6f390600090a3806114de816139fe565b91505061146e565b610134546001600160a01b031633148061150b5750610135546001600160a01b031633145b8061152f57503361152460fb546001600160a01b031690565b6001600160a01b0316145b61154b5760405162461bcd60e51b8152600401610b2e90613768565b600047116115925760405162461bcd60e51b81526020600482015260146024820152734e6f2066756e647320746f20776974686472617760601b6044820152606401610b2e565b6000600a6115a1476003613961565b6115ab919061394d565b90506000600a6115bc476003613961565b6115c6919061394d565b90506000600a6115d7476001613961565b6115e1919061394d565b9050600081836115f18647613980565b6115fb9190613980565b6116059190613980565b610134546040519192506000916001600160a01b039091169086908381818185875af1925050503d8060008114611658576040519150601f19603f3d011682016040523d82523d6000602084013e61165d565b606091505b505090508061166b57600080fd5b610135546040516000916001600160a01b03169086908381818185875af1925050503d80600081146116b9576040519150601f19603f3d011682016040523d82523d6000602084013e6116be565b606091505b50509050806116cc57600080fd5b610136546040516000916001600160a01b03169086908381818185875af1925050503d806000811461171a576040519150601f19603f3d011682016040523d82523d6000602084013e61171f565b606091505b505090508061172d57600080fd5b610137546040516000916001600160a01b03169086908381818185875af1925050503d806000811461177b576040519150601f19603f3d011682016040523d82523d6000602084013e611780565b606091505b50509050806111dc57600080fd5b610dc1838383604051806020016040528060008152506120b3565b60fb546001600160a01b031633146117d35760405162461bcd60e51b8152600401610b2e9061380f565b61012e55565b6101325460ff16156118265760405162461bcd60e51b81526020600482015260166024820152751d1a194818dbdb9d1c9858dd081a5cc81c185d5cd95960521b6044820152606401610b2e565b61013c54336000908152610133602052604090206001818101549154909291906118815760405162461bcd60e51b815260206004820152600c60248201526b2737ba1030903bb4b73732b960a11b6044820152606401610b2e565b336000908152610133602052604090205461189c8483613935565b11156118ea5760405162461bcd60e51b815260206004820152601860248201527f557365722068617320616c726561647920636c61696d656400000000000000006044820152606401610b2e565b61012f546118f88484613935565b111561193f5760405162461bcd60e51b81526020600482015260166024820152751b585e08139195081b1a5b5a5d08195e18d95959195960521b6044820152606401610b2e565b336000908152610133602052604081206001018054859290611962908490613935565b909155505061013c8054906000611978836139fe565b9091555061198c90503361149a8585613935565b6119968383613935565b60405133907ff990408a396923cfb9fa47e59a1d70606536fdbeef265182f1c31f7d3811faef90600090a3505050565b60fb546001600160a01b031633146119f05760405162461bcd60e51b8152600401610b2e9061380f565b8051611a049061012d90602084019061305d565b5050565b610134546001600160a01b0316331480611a2d5750610135546001600160a01b031633145b80611a51575033611a4660fb546001600160a01b031690565b6001600160a01b0316145b611a6d5760405162461bcd60e51b8152600401610b2e90613768565b61013680546001600160a01b0319166001600160a01b0392909216919091179055565b610134546001600160a01b0316331480611ab55750610135546001600160a01b031633145b80611ad9575033611ace60fb546001600160a01b031690565b6001600160a01b0316145b611af55760405162461bcd60e51b8152600401610b2e90613768565b61013780546001600160a01b0319166001600160a01b0392909216919091179055565b6000818152606760205260408120546001600160a01b031680610b565760405162461bcd60e51b815260206004820152602960248201527f4552433732313a206f776e657220717565727920666f72206e6f6e657869737460448201526832b73a103a37b5b2b760b91b6064820152608401610b2e565b61012d8054611b9d906139c3565b80601f0160208091040260200160405190810160405280929190818152602001828054611bc9906139c3565b8015611c165780601f10611beb57610100808354040283529160200191611c16565b820191906000526020600020905b815481529060010190602001808311611bf957829003601f168201915b505050505081565b60fb546001600160a01b03163314611c485760405162461bcd60e51b8152600401610b2e9061380f565b61012f55565b60006001600160a01b038216611cb95760405162461bcd60e51b815260206004820152602a60248201527f4552433732313a2062616c616e636520717565727920666f7220746865207a65604482015269726f206164647265737360b01b6064820152608401610b2e565b506001600160a01b031660009081526068602052604090205490565b60fb546001600160a01b03163314611cff5760405162461bcd60e51b8152600401610b2e9061380f565b611d0960006129cd565b565b6040805160108082526102208201909252606091600091906020820161020080368337019050509050600060015b6011811015611d9c57600085815261013b602090815260408083208584529091529020548351849084908110611d7157611d71613a59565b602090810291909101015281611d86816139fe565b9250508080611d94906139fe565b915050611d39565b50909392505050565b60fb546001600160a01b03163314611dcf5760405162461bcd60e51b8152600401610b2e9061380f565b61013155565b60fb546001600160a01b03163314611dff5760405162461bcd60e51b8152600401610b2e9061380f565b61013980546001600160a01b039092166001600160a01b031992831681179091556101388054909216179055565b600054610100900460ff16611e485760005460ff1615611e4c565b303b155b611eaf5760405162461bcd60e51b815260206004820152602e60248201527f496e697469616c697a61626c653a20636f6e747261637420697320616c72656160448201526d191e481a5b9a5d1a585b1a5e995960921b6064820152608401610b2e565b600054610100900460ff16158015611ed1576000805461ffff19166101011790555b611f1a604051806040016040528060098152602001682837b63cb3b7b7b73d60b91b815250604051806040016040528060068152602001652823b7b7b73d60d11b815250612a1f565b611f22612a60565b611f2a612a97565b6040518060600160405280602f8152602001613a9c602f91398051611f589161012d9160209091019061305d565b506801a055690d9db8000061012e55611f4061012f55611e7861013055600a61013155610132805460ff1916600117905561013480546001600160a01b031990811673818c98b66e47b20f8f93c1cbae352a47ab6ca24b17909155610135805482167389e12425d3edd174bab9a8677d3bca8b7f34f1ab179055610136805482167382a40213b91ca47ebb733493175e9c64329b466c1790556101378054821673884e2016fbf07abb312ad66c4ec7e015ea35884317905561013980548216730e80474f7a197846ae4e0e174be1754fd6fde5129081179091556101388054909216179055801561204f576000805461ff00191690555b50565b60fb546001600160a01b0316331461207c5760405162461bcd60e51b8152600401610b2e90613797565b600091825261013b60209081526040808420928452919052812055565b606060668054610ba9906139c3565b611a04338383612ad6565b6120bd338361271c565b6120d95760405162461bcd60e51b8152600401610b2e90613844565b6120e584848484612ba5565b50505050565b60fb546001600160a01b031633146121155760405162461bcd60e51b8152600401610b2e90613797565b801561214557600083815261013a60205260408120805484929061213a908490613980565b9250508190556120e5565b600083815261013a602052604081208054849290612164908490613935565b9091555050505050565b610134546000906001600160a01b03163314806121965750610135546001600160a01b031633145b806121ba5750336121af60fb546001600160a01b031690565b6001600160a01b0316145b6121d65760405162461bcd60e51b8152600401610b2e90613768565b504790565b6000818152606760205260409020546060906001600160a01b031661225a5760405162461bcd60e51b815260206004820152602f60248201527f4552433732314d657461646174613a2055524920717565727920666f72206e6f60448201526e3732bc34b9ba32b73a103a37b5b2b760891b6064820152608401610b2e565b6000612264612bd8565b9050600081511161228457604051806020016040528060008152506122af565b8061228e84612be8565b60405160200161229f92919061366d565b6040516020818303038152906040525b9392505050565b61013854604051635337b42160e11b8152600481018390526000916001600160a01b03169063a66f684290602401602060405180830381600087803b1580156122fe57600080fd5b505af1158015612312573d6000803e3d6000fd5b505050506040513d601f19601f8201168201806040525081019061233691906135da565b6101385460405163178d8cd960e01b8152600481018590529192506000916001600160a01b039091169063178d8cd990602401602060405180830381600087803b15801561238357600080fd5b505af1158015612397573d6000803e3d6000fd5b505050506040513d601f19601f820116820180604052508101906123bb91906135da565b90506123c684611b18565b6001600160a01b0316336001600160a01b03161461241b5760405162461bcd60e51b8152602060048201526012602482015271596f7520646f6e2774206f776e207468697360701b6044820152606401610b2e565b600084815261013b6020908152604080832084845290915290205483146124995760405162461bcd60e51b815260206004820152602c60248201527f596f7520646f6e2774206861766520616e797468696e67207374616b6564206960448201526b37103a3434b9903630bcb2b960a11b6064820152608401610b2e565b6124a5848360016120eb565b6124af8482612052565b61013854604051637921219560e11b81526001600160a01b039091169063f242432a906111ae903090339088906001906004016136d9565b60fb546001600160a01b031633146125115760405162461bcd60e51b8152600401610b2e90613797565b81158015906125205750601082105b6125625760405162461bcd60e51b81526020600482015260136024820152724f757473696465206c617965722072616e676560681b6044820152606401610b2e565b600092835261013b60209081526040808520938552929052912055565b60fb546001600160a01b031633146125a95760405162461bcd60e51b8152600401610b2e9061380f565b6001600160a01b03811661260e5760405162461bcd60e51b815260206004820152602660248201527f4f776e61626c653a206e6577206f776e657220697320746865207a65726f206160448201526564647265737360d01b6064820152608401610b2e565b61204f816129cd565b610135546001600160a01b031633146126605760405162461bcd60e51b815260206004820152600b60248201526a13db9b1e48105c9d1a5cdd60aa1b6044820152606401610b2e565b61013580546001600160a01b0319166001600160a01b0392909216919091179055565b3b151590565b60006001600160e01b03198216630271189760e51b1480610b565750610b5682612ce6565b600081815260696020526040902080546001600160a01b0319166001600160a01b03841690811790915581906126e382611b18565b6001600160a01b03167f8c5be1e5ebec7d5bd14f71427d1e84f3dd0314c0f7b2291e5b200ac8c7c3b92560405160405180910390a45050565b6000818152606760205260408120546001600160a01b03166127955760405162461bcd60e51b815260206004820152602c60248201527f4552433732313a206f70657261746f7220717565727920666f72206e6f6e657860448201526b34b9ba32b73a103a37b5b2b760a11b6064820152608401610b2e565b60006127a083611b18565b9050806001600160a01b0316846001600160a01b031614806127db5750836001600160a01b03166127d084610c2c565b6001600160a01b0316145b8061280b57506001600160a01b038082166000908152606a602090815260408083209388168352929052205460ff165b949350505050565b826001600160a01b031661282682611b18565b6001600160a01b03161461288e5760405162461bcd60e51b815260206004820152602960248201527f4552433732313a207472616e73666572206f6620746f6b656e2074686174206960448201526839903737ba1037bbb760b91b6064820152608401610b2e565b6001600160a01b0382166128f05760405162461bcd60e51b8152602060048201526024808201527f4552433732313a207472616e7366657220746f20746865207a65726f206164646044820152637265737360e01b6064820152608401610b2e565b6128fb6000826126ae565b6001600160a01b0383166000908152606860205260408120805460019290612924908490613980565b90915550506001600160a01b0382166000908152606860205260408120805460019290612952908490613935565b909155505060008181526067602052604080822080546001600160a01b0319166001600160a01b0386811691821790925591518493918716917fddf252ad1be2c89b69c2b068fc378daa952ba7f163c4a11628f55a4df523b3ef91a4505050565b611a04828260405180602001604052806000815250612d36565b60fb80546001600160a01b038381166001600160a01b0319831681179093556040519116919082907f8be0079c531659141344cd1fd0a4f28419497f9722a3daafe3b4186f6b6457e090600090a35050565b600054610100900460ff16612a465760405162461bcd60e51b8152600401610b2e90613895565b612a4e612d69565b612a56612d69565b611a048282612d90565b600054610100900460ff16612a875760405162461bcd60e51b8152600401610b2e90613895565b612a8f612d69565b611d09612dde565b600054610100900460ff16612abe5760405162461bcd60e51b8152600401610b2e90613895565b612ac6612d69565b612ace612d69565b611d09612d69565b816001600160a01b0316836001600160a01b03161415612b385760405162461bcd60e51b815260206004820152601960248201527f4552433732313a20617070726f766520746f2063616c6c6572000000000000006044820152606401610b2e565b6001600160a01b038381166000818152606a6020908152604080832094871680845294825291829020805460ff191686151590811790915591519182527f17307eab39ab6107e8899845ad3d59bd9653f200f220920489ca2b5937696c31910160405180910390a3505050565b612bb0848484612813565b612bbc84848484612e0e565b6120e55760405162461bcd60e51b8152600401610b2e906137bd565b606061012d8054610ba9906139c3565b606081612c0c5750506040805180820190915260018152600360fc1b602082015290565b8160005b8115612c365780612c20816139fe565b9150612c2f9050600a8361394d565b9150612c10565b60008167ffffffffffffffff811115612c5157612c51613a6f565b6040519080825280601f01601f191660200182016040528015612c7b576020820181803683370190505b5090505b841561280b57612c90600183613980565b9150612c9d600a86613a19565b612ca8906030613935565b60f81b818381518110612cbd57612cbd613a59565b60200101906001600160f81b031916908160001a905350612cdf600a8661394d565b9450612c7f565b60006001600160e01b031982166380ac58cd60e01b1480612d1757506001600160e01b03198216635b5e139f60e01b145b80610b5657506301ffc9a760e01b6001600160e01b0319831614610b56565b612d408383612f1b565b612d4d6000848484612e0e565b610dc15760405162461bcd60e51b8152600401610b2e906137bd565b600054610100900460ff16611d095760405162461bcd60e51b8152600401610b2e90613895565b600054610100900460ff16612db75760405162461bcd60e51b8152600401610b2e90613895565b8151612dca90606590602085019061305d565b508051610dc190606690602084019061305d565b600054610100900460ff16612e055760405162461bcd60e51b8152600401610b2e90613895565b611d09336129cd565b60006001600160a01b0384163b15612f1057604051630a85bd0160e11b81526001600160a01b0385169063150b7a0290612e5290339089908890889060040161369c565b602060405180830381600087803b158015612e6c57600080fd5b505af1925050508015612e9c575060408051601f3d908101601f19168201909252612e999181019061355b565b60015b612ef6573d808015612eca576040519150601f19603f3d011682016040523d82523d6000602084013e612ecf565b606091505b508051612eee5760405162461bcd60e51b8152600401610b2e906137bd565b805181602001fd5b6001600160e01b031916630a85bd0160e11b14905061280b565b506001949350505050565b6001600160a01b038216612f715760405162461bcd60e51b815260206004820181905260248201527f4552433732313a206d696e7420746f20746865207a65726f20616464726573736044820152606401610b2e565b6000818152606760205260409020546001600160a01b031615612fd65760405162461bcd60e51b815260206004820152601c60248201527f4552433732313a20746f6b656e20616c7265616479206d696e746564000000006044820152606401610b2e565b6001600160a01b0382166000908152606860205260408120805460019290612fff908490613935565b909155505060008181526067602052604080822080546001600160a01b0319166001600160a01b03861690811790915590518392907fddf252ad1be2c89b69c2b068fc378daa952ba7f163c4a11628f55a4df523b3ef908290a45050565b828054613069906139c3565b90600052602060002090601f01602090048101928261308b57600085556130d1565b82601f106130a457805160ff19168380011785556130d1565b828001600101855582156130d1579182015b828111156130d15782518255916020019190600101906130b6565b506130dd9291506130e1565b5090565b5b808211156130dd57600081556001016130e2565b600067ffffffffffffffff83111561311057613110613a6f565b613123601f8401601f19166020016138e0565b905082815283838301111561313757600080fd5b828260208301376000602084830101529392505050565b80356001600160a01b038116811461127e57600080fd5b600082601f83011261317657600080fd5b8135602061318b61318683613911565b6138e0565b80838252828201915082860187848660051b89010111156131ab57600080fd5b60005b858110156131ca578135845292840192908401906001016131ae565b5090979650505050505050565b8035801515811461127e57600080fd5b600082601f8301126131f857600080fd5b6122af838335602085016130f6565b60006020828403121561321957600080fd5b6122af8261314e565b6000806040838503121561323557600080fd5b61323e8361314e565b915061324c6020840161314e565b90509250929050565b600080600080600060a0868803121561326d57600080fd5b6132768661314e565b94506132846020870161314e565b9350604086013567ffffffffffffffff808211156132a157600080fd5b6132ad89838a01613165565b945060608801359150808211156132c357600080fd5b6132cf89838a01613165565b935060808801359150808211156132e557600080fd5b506132f2888289016131e7565b9150509295509295909350565b60008060006060848603121561331457600080fd5b61331d8461314e565b925061332b6020850161314e565b9150604084013590509250925092565b6000806000806080858703121561335157600080fd5b61335a8561314e565b93506133686020860161314e565b925060408501359150606085013567ffffffffffffffff81111561338b57600080fd5b613397878288016131e7565b91505092959194509250565b600080600080600060a086880312156133bb57600080fd5b6133c48661314e565b94506133d26020870161314e565b93506040860135925060608601359150608086013567ffffffffffffffff8111156133fc57600080fd5b6132f2888289016131e7565b6000806040838503121561341b57600080fd5b6134248361314e565b915061324c602084016131d7565b6000806040838503121561344557600080fd5b61344e8361314e565b946020939093013593505050565b6000806040838503121561346f57600080fd5b823567ffffffffffffffff8082111561348757600080fd5b818501915085601f83011261349b57600080fd5b813560206134ab61318683613911565b8083825282820191508286018a848660051b89010111156134cb57600080fd5b600096505b848710156134f5576134e18161314e565b8352600196909601959183019183016134d0565b509650508601359250508082111561350c57600080fd5b5061351985828601613165565b9150509250929050565b60006020828403121561353557600080fd5b6122af826131d7565b60006020828403121561355057600080fd5b81356122af81613a85565b60006020828403121561356d57600080fd5b81516122af81613a85565b60006020828403121561358a57600080fd5b813567ffffffffffffffff8111156135a157600080fd5b8201601f810184136135b257600080fd5b61280b848235602084016130f6565b6000602082840312156135d357600080fd5b5035919050565b6000602082840312156135ec57600080fd5b5051919050565b6000806040838503121561360657600080fd5b50508035926020909101359150565b60008060006060848603121561362a57600080fd5b505081359360208301359350604090920135919050565b60008151808452613659816020860160208601613997565b601f01601f19169290920160200192915050565b6000835161367f818460208801613997565b835190830190613693818360208801613997565b01949350505050565b6001600160a01b03858116825284166020820152604081018390526080606082018190526000906136cf90830184613641565b9695505050505050565b6001600160a01b0394851681529290931660208301526040820152606081019190915260a06080820181905260009082015260c00190565b6020808252825182820181905260009190848201906040850190845b818110156137495783518352928401929184019160010161372d565b50909695505050505050565b6020815260006122af6020830184613641565b6020808252601590820152744f6e6c79205465616d2063616e20646f207468697360581b604082015260600190565b6020808252600c908201526b155b985d5d1a1bdc9a5e995960a21b604082015260600190565b60208082526032908201527f4552433732313a207472616e7366657220746f206e6f6e20455243373231526560408201527131b2b4bb32b91034b6b83632b6b2b73a32b960711b606082015260800190565b6020808252818101527f4f776e61626c653a2063616c6c6572206973206e6f7420746865206f776e6572604082015260600190565b60208082526031908201527f4552433732313a207472616e736665722063616c6c6572206973206e6f74206f6040820152701ddb995c881b9bdc88185c1c1c9bdd9959607a1b606082015260800190565b6020808252602b908201527f496e697469616c697a61626c653a20636f6e7472616374206973206e6f74206960408201526a6e697469616c697a696e6760a81b606082015260800190565b604051601f8201601f1916810167ffffffffffffffff8111828210171561390957613909613a6f565b604052919050565b600067ffffffffffffffff82111561392b5761392b613a6f565b5060051b60200190565b6000821982111561394857613948613a2d565b500190565b60008261395c5761395c613a43565b500490565b600081600019048311821515161561397b5761397b613a2d565b500290565b60008282101561399257613992613a2d565b500390565b60005b838110156139b257818101518382015260200161399a565b838111156120e55750506000910152565b600181811c908216806139d757607f821691505b602082108114156139f857634e487b7160e01b600052602260045260246000fd5b50919050565b6000600019821415613a1257613a12613a2d565b5060010190565b600082613a2857613a28613a43565b500690565b634e487b7160e01b600052601160045260246000fd5b634e487b7160e01b600052601260045260246000fd5b634e487b7160e01b600052603260045260246000fd5b634e487b7160e01b600052604160045260246000fd5b6001600160e01b03198116811461204f57600080fdfe68747470733a2f2f706f6c79676f6f6e7a2e6172747379646566692e6170702f6d657461646174612f62617365732fa26469706673582212206b461b2498a1c43d9caf28145023adf004de0d1e211feb3b5e262c305803782d64736f6c63430008070033",
    "sourcePath": "c:/Users/Chillyo/Desktop/polygoonz-contracts/contracts/GoonzBases.sol",
    "compiler": {
        "name": "solc",
        "version": "0.8.7+commit.e28d00a7"
    },
    "functionHashes": {
        "approve(address,uint256)": "095ea7b3",
        "artistWallet()": "a3342fba",
        "balanceOf(address)": "70a08231",
        "baseURI()": "6c0360eb",
        "checkBalance()": "c71daccb",
        "claimGiveaway()": "4af9bc10",
        "cost()": "13faede6",
        "devWallet()": "8ea5220f",
        "getApproved(uint256)": "081812fc",
        "getItems(uint256)": "796c5e94",
        "getPower(uint256)": "017fe809",
        "getTotalSupply()": "c4e41b22",
        "giveawayTracker(address)": "53c03d45",
        "goonzItemsAddress()": "17eb5b4f",
        "goonzItemsContract()": "65e0e443",
        "initialize()": "8129fc1c",
        "isApprovedForAll(address,address)": "e985e9c5",
        "isGiveawayWinner(address)": "2112a508",
        "listGiveawayWinners(address[],uint256[])": "089c7d8b",
        "marketingWallet()": "75f0a874",
        "maxMintAmount()": "239c70ae",
        "maxRegularMint()": "4126d767",
        "maxSupply()": "d5abeb01",
        "name()": "06fdde03",
        "onERC1155BatchReceived(address,address,uint256[],uint256[],bytes)": "bc197c81",
        "onERC1155Received(address,address,uint256,uint256,bytes)": "f23a6e61",
        "owner()": "8da5cb5b",
        "ownerOf(uint256)": "6352211e",
        "pause(bool)": "02329a29",
        "paused()": "5c975abb",
        "removeItem(uint256,uint256)": "870fc347",
        "renounceOwnership()": "715018a6",
        "safeMint(uint256)": "31c864e8",
        "safeTransferFrom(address,address,uint256)": "42842e0e",
        "safeTransferFrom(address,address,uint256,bytes)": "b88d4fde",
        "setApprovalForAll(address,bool)": "a22cb465",
        "setArtistWallet(address)": "fce57fd9",
        "setBaseURI(string)": "55f804b3",
        "setCost(uint256)": "44a0d68a",
        "setDesignerWallet(address)": "5889f54d",
        "setDevWallet(address)": "1f53ac02",
        "setItem(uint256,uint256,uint256)": "ee33646c",
        "setMarketingWallet(address)": "5d098b38",
        "setMaxSupply(uint256)": "6f8b44b0",
        "setPower(uint256,uint256)": "0fd72d16",
        "setmaxMintAmount(uint256)": "7f00c7a6",
        "stakeToGoon(uint256,uint256)": "12c8146b",
        "supportsInterface(bytes4)": "01ffc9a7",
        "symbol()": "95d89b41",
        "teamWallet()": "59927044",
        "tokenURI(uint256)": "c87b56dd",
        "totalSupply()": "18160ddd",
        "transferFrom(address,address,uint256)": "23b872dd",
        "transferOwnership(address)": "f2fde38b",
        "unstakeFromGoon(uint256,uint256)": "eaf63b7e",
        "updateItemsAddress(address)": "7f061efe",
        "updatePower(uint256,uint256,uint256)": "bab4dde0",
        "withdraw()": "3ccfd60b"
    },
    "gasEstimates": {
        "creation": {
            "codeDepositCost": "3020800",
            "executionCost": "infinite",
            "totalCost": "infinite"
        },
        "external": {
            "approve(address,uint256)": "infinite",
            "artistWallet()": "2427",
            "balanceOf(address)": "2646",
            "baseURI()": "infinite",
            "checkBalance()": "6880",
            "claimGiveaway()": "infinite",
            "cost()": "2397",
            "devWallet()": "2448",
            "getApproved(uint256)": "4783",
            "getItems(uint256)": "infinite",
            "getPower(uint256)": "4705",
            "getTotalSupply()": "2392",
            "giveawayTracker(address)": "4748",
            "goonzItemsAddress()": "2405",
            "goonzItemsContract()": "2406",
            "initialize()": "infinite",
            "isApprovedForAll(address,address)": "infinite",
            "isGiveawayWinner(address)": "2719",
            "listGiveawayWinners(address[],uint256[])": "infinite",
            "marketingWallet()": "2449",
            "maxMintAmount()": "2353",
            "maxRegularMint()": "2374",
            "maxSupply()": "2373",
            "name()": "infinite",
            "onERC1155BatchReceived(address,address,uint256[],uint256[],bytes)": "infinite",
            "onERC1155Received(address,address,uint256,uint256,bytes)": "infinite",
            "owner()": "2420",
            "ownerOf(uint256)": "2689",
            "pause(bool)": "26783",
            "paused()": "2399",
            "removeItem(uint256,uint256)": "7592",
            "renounceOwnership()": "28207",
            "safeMint(uint256)": "infinite",
            "safeTransferFrom(address,address,uint256)": "infinite",
            "safeTransferFrom(address,address,uint256,bytes)": "infinite",
            "setApprovalForAll(address,bool)": "infinite",
            "setArtistWallet(address)": "26843",
            "setBaseURI(string)": "infinite",
            "setCost(uint256)": "24598",
            "setDesignerWallet(address)": "31168",
            "setDevWallet(address)": "26823",
            "setItem(uint256,uint256,uint256)": "24768",
            "setMarketingWallet(address)": "31145",
            "setMaxSupply(uint256)": "24577",
            "setPower(uint256,uint256)": "24625",
            "setmaxMintAmount(uint256)": "24532",
            "stakeToGoon(uint256,uint256)": "infinite",
            "supportsInterface(bytes4)": "infinite",
            "symbol()": "infinite",
            "teamWallet()": "2404",
            "tokenURI(uint256)": "infinite",
            "totalSupply()": "2374",
            "transferFrom(address,address,uint256)": "infinite",
            "transferOwnership(address)": "28422",
            "unstakeFromGoon(uint256,uint256)": "infinite",
            "updateItemsAddress(address)": "51022",
            "updatePower(uint256,uint256,uint256)": "26877",
            "withdraw()": "infinite"
        },
        "internal": {
            "_baseURI()": "infinite",
            "_beforeTokenTransfer(address,address,uint256)": "infinite"
        }
    }
}